:020000040800F2
:1000000038090020010200084D2E0008952D000837
:10001000492E00080B200008014B000800000000DA
:100020000000000000000000000000001D3A000871
:10003000C529000800000000F53400080544000848
:100040001B0200081B0200081B0200081B0200081C
:100050001B0200081B0200081B0200081B0200080C
:100060001B0200081B0200081B0200081B020008FC
:100070001B0200081B0200081B0200081B020008EC
:100080001B0200081B0200081B0200081B020008DC
:10009000B14A00081B0200081B0200081B020008EE
:1000A0001B0200081B0200081B0200081B020008BC
:1000B0001B020008694400081B0200081B0200081C
:1000C0001B0200081B0200081B0200081B0200089C
:1000D0001B0200082D4600081B0200081B02000836
:1000E0001B0200081B0200081B02000800F002F8B7
:1000F00000F076F80AA090E8000C82448344AAF14C
:100100000107DA4501D100F06BF8AFF2090EBAE849
:100110000F0013F0010F18BFFB1A43F0010318473B
:1001200074720000947200000A444FF0000C10F842
:10013000013B13F0070408BF10F8014B1D1108BF65
:1001400010F8015B641E05D010F8016B641E01F805
:10015000016BF9D113F0080F1EBF10F8014BAD1C55
:100160000C1B09D16D1E58BF01F801CBFAD505E073
:1001700014F8016B01F8016B6D1EF9D59142D6D3CD
:10018000704700000023002400250026103A28BFF5
:1001900078C1FBD8520728BF30C148BF0B607047F9
:1001A000662906F0A287642900F08280752900F094
:1001B0007F80732900F0D683002070471FB500F0C0
:1001C000ADFC04000020002105F060FF401C6060D1
:1001D0000020002105F070FFE0601FBD10B510BDCC
:1001E00000F002FE1146FFF7E9FF04F09FFD01F069
:1001F00073F803B4FFF7F2FF03BC04F019FD00002D
:100200000948804709480047FEE7FEE7FEE7FEE7AA
:10021000FEE7FEE7FEE7FEE7FEE7FEE704480549E6
:10022000054A064B7047000009440008ED0000082D
:100230003803002038090020380500203805002048
:10024000704700000FB4044910B503AA029800F0EB
:100250008DFB10BC5DF814FB6C01002070B50C46E2
:100260000546012A05D02878800600D5EA690023D2
:1002700002E0012305E05B1C934202D2E05C00280F
:10028000F9D1A869E618C01AA861286A184428623A
:100290002846AFF3008004E0D5E9012114F8010BF2
:1002A0009047B442F8D32846AFF3008070BD0000F9
:1002B0002DE9F0410646002410687529314615A540
:1002C00010D0AFF30080002802DA404212A507E008
:1002D00031688A0701D511A502E0490704D510A5A8
:1002E000012401E0AFF3008000210A2306F1240776
:1002F00007E0B0FBF3F203FB1200303078541046F5
:10030000491C0028F5D123462A463046BDE8F04175
:1003100000F0B2B8000000002D0000002B0000002B
:10032000200000002DE9F0410F460546002028621C
:100330002846E968884770B3252805D0D5E901210A
:100340009047286A401CF2E7E9682846002688475B
:100350006C2804460AD0682C08D04C2C35D06A2C66
:1003600031D0742C31D07A2C2FD016E0E9680646B3
:1003700028468847B042044608D16C2E23D04FF45B
:1003800080662846E9688847044606E06C2E03D05C
:100390004FF4807601E01EE04026E4B1A4F1410074
:1003A000192802D8203446F400663A4621462846E9
:1003B0002E60FFF7F5FE60B1012808D0FF1D27F081
:1003C00007070837B4E78026DBE70026D9E73F1D9B
:1003D000AEE72046B2E7286ABDE8F0812DE9F04794
:1003E00091460F4680460446002614F8015B2DB165
:1003F00000F036F80068405DC007F6D12B2D02D022
:100400002D2D18D0641E4A463946204600F0C0FA09
:1004100027B13968A14201D1C7F800804FF002042A
:1004200071050BD54042002803DD00F021F804607F
:10043000A007BDE8F08746F48066E4E70028F8DA14
:1004400000F016F804606FF00040F2E7014A00F097
:100450003FBB000070010020704770477047704735
:1004600010B500F05BFB001D10BD00BF215C00005B
:1004700000487047D80200202DE9F0470D46994604
:100480009246044600F124080168880604D5E06914
:1004900021F01001216000E00120A84201DD471B8E
:1004A00000E00027A1697A1902EB0900081AA0618F
:1004B0002078C00602D42046AFF30080002608E072
:1004C000D4E901211AF806009047206A401C761CE6
:1004D00020624E45F4DB2078C0060AD52046AFF3F3
:1004E000008006E0D4E9012130209047206A401CBA
:1004F0002062381EA7F10107F4DC07E0D4E90121EE
:1005000018F805009047206A401C2062281EA5F1BB
:100510000105F3DC2046AFF300802078000602D509
:100520000220BDE8F0870120FBE770472DE9FF4F6F
:100530000C461E464FF0FF378BB0D2E90001DDF8C4
:1005400060800A908A46C1F30A5505B93D460021EC
:1005500008464FF00000BAF1000F00F4400005DA41
:1005600000EB80004FF4400101EA50004FEA90593F
:10057000B9F1010F00DDB9460A9850EA4A000ED0E1
:1005800044F61050A5F2FF3545432F14B8F1000F83
:100590001ED07542291E1EDDC9F100021CE0B8F113
:1005A000010F4FF0000001D0302103E0F24305E0DD
:1005B0002154401CB042FBDB304600220021215474
:1005C0000B99C1F80880C1E900200FB0BDE8F08F99
:1005D000BD1B6D1CDEE74A4600DA694206A800F042
:1005E00075FB06AB93E8070003AB83E807005046B2
:1005F0000A9901F0FCF88DE80700A0F500501F38BB
:1006000000900398002D09DD42F21F014A4608447C
:1006100003A90390684601F086FB08E0A0F50050AE
:100620004A461F3803A90390684601F0A4FB8DE8F1
:1006300007000004000C03D04FF0FF30410800E039
:100640001046B8F1000F03D00022009215461EE0BC
:10065000751E05D400F066FA303262556D1EF9D56C
:10066000B3460122084302D000227F1C04E0207818
:10067000302801D100227F1E002A099786D01DE074
:10068000112D07DA00F04EFA303262556D1C50EA37
:100690000102F5D1084302D00098C8B10EE0002154
:1006A000681E05E0235C625C63542254401E491CB2
:1006B0008142F7DBAB46A81B401E0990002004F8DE
:1006C0000B000B98099AC0F80880C0E9002B7CE762
:1006D00011264FF0000859E72DE9F04F88460446EF
:1006E000D21D22F0070191B0D1E90001CDE90A0144
:1006F00004F024FA02460B98C00F01D02D2007E029
:100700002068810701D52B2002E0202101EAC000EA
:10071000032A099001D0072A05DB034641462046FB
:1007200000F066FA09E12078800601D5E06900E072
:100730000620B8F1650F814606D0B8F1660F18D0D3
:10074000B8F1670F70D131E00020B9F1110F0090BE
:1007500001DB112301E009F101030AAA01A90CA898
:10076000FFF7E4FEDDE90C70002609F10105834680
:1007700047E001204B4600904FF000470AAA01A92C
:100780000CA8FFF7D3FEDDE90DB00C995D460026FD
:1007900010B909F101000D18B9EB050003D4C0F13F
:1007A000FF3609F10105A5EB09002BE0B9F1010FB6
:1007B00001DA4FF001090020B9F1110F009048460D
:1007C00001DD112300E003460AAA01A90CA8FFF7E6
:1007D000ADFEDDE90C704D4600268346207800070B
:1007E0000AD4AB4500DA5D4601A8012D04DD4119AC
:1007F00011F8011C302907D04F4502DA17F1040F18
:1008000004DA012082460FE06D1EEEE7002F02DCC5
:10081000ED1B3E4403E0781CA84200DD7D1CB81BA4
:1008200000F1010A4FF000472078000703D4AA45E1
:1008300001DB4FF0FF3A0021B7F1004F0DF1430803
:100840008DF8431022D002202B23002F01DA7F42A3
:100850002D234FF00A0C011EA0F1010000DC47B16E
:1008600097FBFCF10CFB11720F46303208F8012D9A
:10087000F1E7A8F1010003702188090501D54521A0
:1008800000E06521A0F1010800F8011C09980FA9FA
:10089000A1EB0807FF1D00B10120411901EBEA702F
:1008A000A1693844081A401EA0612078C00602D40D
:1008B0002046AFF30080099828B1D4E90121904780
:1008C000206A401C20622078C00622D52046AFF363
:1008D00000801EE0002E04DBB34502DD01A8805D30
:1008E00000E03020D4E901219047206A401C2062BA
:1008F000761CAAF101005FEA000A0AD100F00EF9A5
:10090000C0680168405CD4E901219047206A401C1E
:100910002062281EA5F10105DCDC07E0D4E90121F5
:1009200018F8010B9047206A401C2062381EA7F17E
:100930000107F3DC2046AFF30080022011B045E64A
:1009400010B5436913B1AFF3008001E0FFF786FCF7
:10095000012010BD127800F124010A7000224A70B3
:100960000122EDE711684FF0FF32E9E7074B70B560
:100970000D467B4400F029F90446284600F012FA9F
:1009800010B14FF0FF3070BD204670BDC342000073
:100990002DE9F05F824615468B4600270AF10104D7
:1009A000B9460078302801D09DB113E014F8010B4E
:1009B0000127782803D0582801D045B10AE00DB1AD
:1009C000102D07D1002714F8010B102502E008258F
:1009D00000E00A250026B0460EE005FB080005FBF6
:1009E00006F101271FFA80F801EB1046B6F5803FAB
:1009F00000D3B94614F8010B294600F039F9002854
:100A0000EBDABBF1000F05D00FB1641E00E05446D5
:100A1000CBF80040B9F1000F06D0FFF729FD022105
:100A20000160C81EBDE8F09F48EA0640FAE70000F2
:100A30000FB4002300B589B00CA900910B99CB60CD
:100A4000204B7B440693204B7B44079304236FF099
:100A50000042CDE901321D4A7A446B4608920246B3
:100A6000002006F0A4FB09B05DF814FB70B5064643
:100A70004FF0FF3015460C46324686B00091CDE966
:100A8000010169460020049004A8FFF7D1FF034646
:100A90000498211825B108B10A4600E022462A60D0
:100AA00000280DD0002B02DD0098884208D0324685
:100AB000081B69460094CDE9010404A8FFF7B8FFBC
:100AC00006B070BD470200005F0200005301000045
:100AD0002DE9F04115460E46040002D12C6804B9F8
:100AE0000BA4204600F072F90444207870B1274628
:100AF0003146384600F05AF90444207810B10020FD
:100B000004F8010B38462C60BDE8F0810027F9E7B6
:100B10000000000000487047D802002000487047DD
:100B2000F802002030B5B0F10A024FEA900E71F1E0
:100B300000034EEA817EB0EB0E0061EB91014FEABB
:100B4000101E4EEA017E10EB0E0041EB11114FEA30
:100B5000102E4EEA016E10EB0E0041EB11214FEA10
:100B6000104E4EEA014E10EB0E0041EB11414018C1
:100B700041F100014FEAD00040EA41704FEAD10153
:100B800010EB80054FEA810444EA907444EB0104C1
:100B90006D1944EB0404521BA3414FF0000348BFFE
:100BA0000A3200D530BD401C41F1000130BD10B506
:100BB0000446FFF755FC0068005D00F0010010BD21
:100BC00001694A1C02610878704700B58FB0CDE911
:100BD00001310021059105497944CDE90310114601
:100BE0006846FFF79FFB0FB000BD0000E5FFFFFF69
:100BF0002DE9F0411F46044603260168072A01F447
:100C0000006004DB08B116A505E016A503E008B1F5
:100C100015A500E015A521F010002060A069C01EF8
:100C2000A0610FB1401EA0612046AFF300804FB11C
:100C3000D4E9012138469047206A401C2062C01C3C
:100C4000206206E0206AFAE7D4E9012115F8010BD9
:100C50009047761EF8D22046AFF30080BDE8F081C1
:100C60004E414E006E616E00494E4600696E660050
:100C70003A2800D2303820F02002412A01D3A2F1D4
:100C80003700884201D34FF0FF307047426842B1CD
:100C9000016811F8013B23B1521EC0E90012184649
:100CA00070470121C160881E704742685AB1C3680D
:100CB000016843B983688B4205D0491E521CC0E9C4
:100CC0000012002070474FF0FF3070472DE9F047C9
:100CD000814616468AB0324878440DC88DE80D002A
:100CE0002F487844801C03AC0DC884E80D0041F601
:100CF0009B303722014491FBF2F0A0F1800502FB0A
:100D000010141B3C02D56442012000E00020DFF8F3
:100D100090A080460027FA44AAF1BA0A0DE0E00745
:100D200009D03246684607EB47010AEB810101F022
:100D300022F88DE8070064107F1C002CEFD1184FBB
:100D40007F44A83F18E0E80714D007EB04100DF12A
:100D5000180A90E80E008AE80E00C068F04201D13F
:100D600098190890324606A903A801F004F803ABCD
:100D700083E807006D10641C002DE4D132466946FB
:100D8000B8F1000F03A802D000F0CDFF01E000F0A1
:100D9000F2FFC9E90001C9F808200AB0BDE8F087F0
:100DA00040660000007B00F08000704730B50346CD
:100DB0001D781DB10A4603E0AC4201D1181A30BDBE
:100DC00012F8014B002CF7D15B1CF1E730B503465C
:100DD0001D783DB10A4612F8014B1CB1AC42FAD164
:100DE0005B1CF5E7181A30BD7546FFF793FEAE465B
:100DF00005006946534620F00700854618B020B527
:100E0000FFF70CFABDE820404FF000064FF0000756
:100E10004FF000084FF0000B21F00701AC46ACE8A2
:100E2000C009ACE8C009ACE8C009ACE8C0098D460F
:100E3000704700002DE9FF4F064689B00878FF286B
:100E400006D0491C2D2805D000244FF0000908E0E9
:100E500000200CE00124F8E709EB8903491C00EBB2
:100E600043090878FF28F7D114B1C9F10000814681
:100E7000107800252C46AA4629462D2801D02B287B
:100E800004D1521C2D2813D0002082468B461078A6
:100E9000FF280FD04FF0000C0A21521CA5FB01784F
:100EA00004FB018105FB0C11C5194BEB0104EEE7B6
:100EB0000120EAE7002108464FF00000BAF1000FD8
:100EC00002D000EB80004008C0F38158B8F1010F58
:100ED00001DD4FF0FF380C9809EB000755EA0400DC
:100EE00009D04FF0020917F5FA7F0BDA4FEACA7002
:100EF000C6E900B012E04FEACA70C6E900B00DB012
:100F0000BDE8F08FB7F5FA7F0DDDF0487844D0E901
:100F10000010C6E9001040EACA707060FFF7A8FA36
:100F2000C0F80090EBE7391E02DAC8F1000200E0D9
:100F3000424600DA794206A8FFF7C8FE06AB93E8FE
:100F4000070003AB83E8070044F23E005BEA0401BC
:100F50000090584604D144F21E012C465D46009193
:100F6000210C0904014306D10099240444EA1544E4
:100F70002D041039009104F07F41014306D10099FE
:100F8000240244EA15642D020839009104F07041EE
:100F9000014306D10099240144EA15742D01091F6B
:100FA000009104F04041014306D10099A40044EAB5
:100FB0009574AD00891E009104F00041084304D1EE
:100FC00000986D196441401E009042466846002F0B
:100FD000CDE9014503A902DD00F0E1FE01E000F0EA
:100FE000B6FEBAF1000F04460D4601D084F000446D
:100FF00040F2FF7724F00040284303D0C4F30A50A6
:10100000B84212D1FFF734FAC0F80090C4F30A5086
:10101000B8420AD1AE487844D0E90010C6E90010C1
:1010200004F000410843706069E7C6E9005466E7D0
:101030002DE9FF4F1F464FF0000A4FF0FF3845469D
:1010400091B0D7E90146CDF83CA0FFF767FDC06835
:101050000168405C1090B96912986D1C8847396A24
:10106000814688470028F6D1B9F1FF3F0AD0002E0B
:1010700024F4D06411DDB9F12B0F08D0B9F12D0F94
:101080000BD102E0404615B03AE744F48064B969F8
:1010900012986D1C8847761E8146600504A901D50B
:1010A0002D2000E02B20002E01F1010B0DF1300866
:1010B0008DF810003FDDB9F1690F08D0B9F1490F83
:1010C00005D0B9F16E0F02D0B9F14E0F1CD13B46DD
:1010D00001A8009580E85002DDE912126FF00200CD
:1010E00006F069F8C11CCED10EE0B96912986D1CEA
:1010F000884781461398761E44F4007405600F9863
:10110000401C002E0F9016DDB9F1300FEDD0B9F173
:10111000780F02D0B9F1580F0DD10F9801280AD1DC
:101120003B46CDE90054DDE91212001F029606F09D
:1011300040F8C11CA7D1109989453ED144F08004E4
:1011400006E01399681CAAF1010A44F400740860CF
:10115000B9696D1C1298761E884730288146F0D0F8
:101160002BE01099894505D1200603D4761E44F062
:10117000800418E0484603F054FD08B3761E0DF1D4
:1011800023018B4544F4007408D2A9F130000BF818
:10119000010B200607D5AAF1010003E0200602D4C6
:1011A0000AF101008246A00502D51399681C086067
:1011B000B96912986D1C88478146002ED1DC53E036
:1011C000002E51DDB9F1650F02D0B9F1450F4BD1B9
:1011D000A00549D5B9696D1C1298761E24F4407497
:1011E0008847002E81460CDD2B2804D0B9F12D0F45
:1011F00007D144F48074B96912986D1C8847761E33
:101200008146E00501D52D2100E02B2108F8011BC6
:10121000CDF8008021E0761E0DF13901884544F4B7
:1012200000740CD2A9F1300010F0FF0088F8000023
:1012300002D10099884509D908F1010806E0E005C6
:1012400001D5244801E042F20F708246B969129834
:101250006D1C8847814613980560002E04DD4846C2
:1012600003F0DFFC0028D6D1F96912988847FF20E7
:1012700053468BF8000088F8000000200A900B907D
:1012800004AA0CA90AA8FFF7D5FDA00502D46FF0A7
:101290000100F8E614F0240F0AD0E00714D13868F2
:1012A000DDE90A12031D3B600068C0E900120BE093
:1012B0000AA9684603F05EFCE00705D13868009A89
:1012C000011D3960006802602846DCE6A464000065
:1012D0009A630000F1D8FFFF0446AFF30080204678
:1012E000FEF787FF4FF0013C50F8042B51F8043B08
:1012F0009A4221D1A2EB0C03934313EACC1317D1EA
:1013000050F8042B51F8043B9A4215D1A2EB0C0380
:10131000934313EACC130BD150F8042B51F8043B40
:101320009A4209D1A2EB0C03934313EACC13DBD00E
:101330004FF00000704700BFD01A01BAB1FA81F136
:1013400001F0180122FA01F0CB40C1F12001DBB21B
:10135000C0B2C01A2CFA01F3D11A914311EAC31199
:10136000E6D1704710B5FFF783F8006810BD10B5DF
:101370000446FFF77DF8046010BD00002DE9FF4F23
:101380001F464FF03C0987B04FF00042DDE91410D2
:1013900001F10108DDF858A002EA40500390002056
:1013A00004908346054604460590B969461E089890
:1013B0008847AAF1010A0290BAF1000F37DD0298BE
:1013C0002E2815D01021FFF753FC00282ADB4FF000
:1013D000010B0499014316D0B9F1000F0BDB4A460B
:1013E000C11700F0F1F905430C43A9F1040905E028
:1013F0000120059007E008B145F0010501200490A7
:10140000059800B9361DB969089808F101088847A0
:10141000BBF1000FAAF1010A0290CDD00999C1F8E1
:101420000080C9E70298702808D0502806D0F969D2
:1014300008988847BBF1000F14D04FE000200290BD
:101440000120BBF1000F049009D0B969089808F198
:1014500001088847AAF10109B9F1000F07DCF96911
:10146000089888476FF001000BB0BDE8F08F2B287B
:1014700004D02D280CD14FF0FF300490B9690898A2
:1014800008F101088847A9F10109B9F1000FE6DD6B
:10149000411CE4D00A21FFF7EBFB0028DFDB0299B7
:1014A00008F1010801EB810100EB41000290B969EC
:1014B000089888470A21FFF7DBFB099AA9F101097F
:1014C000B9F1000FC2F8008001DD0028E7DAF96900
:1014D000089888470499029800FB016655EA0400C1
:1014E00004D004F04041090002D006E0039898E0DF
:1014F000A40044EA9574AD00B61E04F00041080053
:1015000002D16D196441761E159810F0240F03D096
:101510004FF00B095C4803E04FF028096FF07D00A5
:101520008246564507DAAAEB06018944B9F1410F14
:1015300001DD4FF0410901200021A9F1010200F075
:1015400043F9024628400B462140084301D00121BF
:1015500000E00021501E029143F1FF31284021405C
:10156000084301D0012000E000200299834651EA9F
:101570000B014FD0002108464FF00000039900F402
:10158000400039B100EB80004FF4400100EBD07017
:1015900001EA60008015012802DD4FF0FF3000E015
:1015A00013D0401C36D0029860B3BBF1000F0CD1B1
:1015B0004A460120002100F007F928402140084355
:1015C00001D0012000E00020E0B101204A460021C6
:1015D00000F0FAF8034640190A4661412D1A8C4181
:1015E00011D3B9F1400F09DD159810F0240F02D086
:1015F000AAF1340603E0AAF1170600E0761C0025E4
:101600004FF0004406E05B1E42F1FF3220EA030582
:1016100021EA0204CAF10100B04206DA1B4903982C
:1016200008430190002000900EE0039AC4F3D321F8
:10163000E80A0A43164940EA44500A433146CDE9D4
:101640000002684603F0E2FA159810F0240F0BD060
:101650001598C00715D13868DDE90012031D3B60FD
:101660000068C0E900120CE002A8694603F082FAA3
:101670001598C00705D13868029A011D39600068C5
:1016800002604046F0E6000002FCFFFF0000F07F31
:101690000000F03F2DE9FF4F92461D4685B04FF008
:1016A0000041DDE9124BDDE914727F1E01EA4B5067
:1016B000414940F0FF4940EA0108002122F02000A2
:1016C0004928049102D04E2828D04CE03BA00126A6
:1016D00007C88DE80700A9690698641C88477F1E23
:1016E000014606D41DF8060018B121F02001814200
:1016F0000BD0E96906988847032E34D0082E32D0E3
:101700006FF0010009B0BDE8F08F761C032E01D008
:10171000082EE0D1601CCAF80000DCE7A969069831
:10172000641C88477F1E2AD420F02000412826D13F
:10173000A9690698641C88477F1E20D420F02000E9
:101740004E281CD1A9690698641C88477F1E48F45E
:10175000002849F48009CAF8004001D4282806D09E
:10176000E969069888475FEACB7012D022E0A96940
:101770000698641C88477F1E01D4002803DAE969B3
:1017800006988847BCE72928F1D1641CCAF80040B4
:10179000E9E71BF0240F07D028680499031D2B608C
:1017A0000068C0E9001805E02868021D2A6000688A
:1017B000C0F800902046A5E70000F07F494E46495A
:1017C0004E49545900000000B2F120030AD5C2F17D
:1017D000200301FA02F120FA03F300FA02F041EAD1
:1017E0000301704700FA03F14FF0000070475FEA11
:1017F000400C08BF91F0000F4FEA8C234FEAC12242
:1018000043EA51514FEA1C5018BF00F5F0404FEA2F
:10181000300018BF41F000415FEA6C5C00F02980A5
:10182000BCF1FF3F08BF40F080407047130C06BF7B
:1018300012044FF0100C4FF0000C130E04BF1202F4
:101840000CF1080C130F04BF12010CF1040C930FE0
:1018500004BF92000CF1020CD30F04BF52000CF134
:10186000010C11464FF00002A0F11F00A0EB0C008C
:10187000704711F0004F08BF704731F000413FF44E
:10188000D5AF0B0C06BF09044FF0100C4FF0000C45
:101890000B0E04BF09020CF1080C0B0F04BF090169
:1018A0000CF1040C8B0F04BF89000CF1020CCB0F60
:1018B00004BF49000CF1010CCCF12003A0EB0C009B
:1018C00022FA03F302FA0CF241EA030100F10100EB
:1018D000704720F07F4C80EA030023F07F47ACEB99
:1018E000070303F57C5300F0004003F1FF032DE9EB
:1018F00080494FEA154B09B44FEA144325EA0B4ED1
:1019000024EA03480FF2042606EB132749083E7821
:101910005FEA320203FB0667C7F5000707FB06F61E
:101920004FEA54374FEAD64606F1020607FB066C2B
:10193000CCF1005C4FEA1C472CEA074C07FB06F48D
:101940000CFB06F504EB15464FEA961634BF002053
:101950004FF000404FEAD13706FB07FC4FEA1C4C22
:101960000CFB0BF7D21B03FB0CF761EB07010CFB25
:101970000EF7B0EB074072EB17420CFB08F734BFD1
:10198000A2EB0742B2EB074261EB17414FEA0C446E
:101990004FEA910706FB07FC4FEA1C4C0CFB0BF7C8
:1019A000B0EBC74072EB573203FB0CF734BFA2EB2E
:1019B000C742B2EBC74261EB57310CFB0EF7B0EBFD
:1019C000C70072EB57720CFB08F734BFA2EBC702DB
:1019D000B2EBC70261EB5771039F4FEA816141EAA5
:1019E000921104EBCC044FEAD1374FEA826206FB36
:1019F00007FC42EA90124FEA80604FEA1C4C0CFB55
:101A00000BF7D21B03FB0CF761EB07010CFB0EF786
:101A1000B0EB074072EB17420CFB08F734BFA2EBA8
:101A20000742B2EB074261EB17414FEA8C554FEA90
:101A3000910704EB9C2406FB07FC4FEA1C4C0CFBB3
:101A40000BF7B0EBC74072EB573203FB0CF734BF18
:101A5000A2EBC742B2EBC74261EB57310CFB0EF76A
:101A6000B0EBC70072EB57720CFB08F734BFA2EB68
:101A7000C702B2EBC70261EB577115EB4C254FEA79
:101A8000816141EA92114FEA82624FEAD13742EA1C
:101A9000901206FB07FC44F100044FEA80604FEA15
:101AA0001C4C0CFB0BF7D21B03FB0CF761EB070183
:101AB0000CFB0EF7B0EB074072EB17420CFB08F77C
:101AC00034BFA2EB0742B2EB074261EB174115EBC3
:101AD0001C154FEA813141EA92414FEA823242EAD3
:101AE00090424FEA80304FEA0C7644F1000448EA15
:101AF00003434EEA0B484FF0000EB2EB080C71EBBB
:101B0000030724BF624639464EEB0E0E4FF0000B22
:101B10000018524149414BEB0B0BB2EB080C71EB37
:101B200003077BF1000B24BF624639464EEB0E0ED5
:101B30004FF0000B0018524149414BEB0B0BB2EB3D
:101B4000080C71EB03077BF1000B24BF624639469A
:101B50004EEB0E0E51EA020718BF46F0010616EBD7
:101B60000E7655F1000254F1000103D5BDE889015C
:101B7000BDE80088BDE88901B619BDE800485241BA
:101B800041EB0101A3F10103704780807F7E7D7CE2
:101B90007B7A7978777676757473727171706F6EFF
:101BA0006E6D6C6C6B6A6A696868676666656464AA
:101BB000636362616160605F5F5E5E5D5D5C5C5B34
:101BC0005B5A5A59595858575756565555555454A3
:101BD000535352525251515050504F4F4F4E4E4D01
:101BE0004D4D4C4C4C4B4B4B4A4A4A49494948484D
:101BF000484747474746464645454544444444438D
:101C000043434342424242414141000046EA0646C4
:101C1000A3F570534FEA164646EA42564FEAD222DF
:101C200042EA415210B54FEAD121A3F1010300F07D
:101C300017F820F0004000F1010C00F0004701EB24
:101C400000501146BCF5006F40EA070000D210BDFD
:101C500002484FF0000140EA070010BD0000F07F8D
:101C6000002B26D4770021D01CB54FEA370703B4E8
:101C70004FF010004FF010014FF000000FBC0BF1BF
:101C8000010BBDE81040BBF1010F08BF5FEA170769
:101C900022BF12F1010211F101014FF0004143F1A5
:101CA000000300F0004043EA00007047F9D35708F2
:101CB000DAE746EA064613F1400F4FEA16461FDD03
:101CC00013F1200FDFBF16430A46002120335B4289
:101CD000C8D0C3F1200746EA064602FA07F74FEAE2
:101CE000164646EA0706C3F1200722FA03F201FA74
:101CF00007F721FA03F14FF0000342EA0702B1E7C8
:101D000046EA020646EA06464FEA164646EA010653
:101D1000BCBF46EA0646360C4FF000034FF0000207
:101D20004FF000019EE72DE9C048934630B491E89A
:101D3000380007C831EA400C48BF34EA430C03D5E9
:101D4000FFF7C7FDFFF78CFFF0BCBDE800882DE969
:101D5000C048934630B491E8380007C831EA400CD7
:101D600048BF34EA430C03D5FFF7B3FDFFF74EFF3E
:101D7000F0BCBDE800882DE9C048934630B491E836
:101D8000380007C810F0804F08BF13F0804F03D110
:101D900000F019F8FFF764FFF0BCBDE800882DE9FA
:101DA000C048934630B491E8380007C810F0804F1F
:101DB00008BF13F0804F03D100F005F8FFF726FFAE
:101DC000F0BCBDE8008820F07F4780EA030023F0E4
:101DD0007F4C07EB0C03A3F57C5300F00040A3F10C
:101DE000FE0392F0000F00F0B38095F0000F00F0BA
:101DF00077802DE901494FEA11404FEA144621EA64
:101E0000004800FB06FC24EA064708FB06F607FB31
:101E100008F800FB07F718EB06484CEB164C4FEAA6
:101E2000124B18EB07484FEA15464CEB174022EAD5
:101E30000B4E0BFB06FC25EA06470EFB06F607FBDE
:101E40000EFE0BFB07F71EEB064E4CEB164C4FF04D
:101E500000061EEB074E4CEB174B18EB0B0840F13E
:101E6000000018EB0E0B58EB000840F100008F1A31
:101E70004FF000013CBFC943661B14BFB5EB040C17
:101E800000213CBFC943F61B4FEA17444EEA8E0EB1
:101E900027EA04454FEA1C4704FB07622CEA074C7B
:101EA00005FB07F70CFB05F604FB0CFC16EB0746DD
:101EB00042EB174216EB0C4642EB1C421BEB0606AC
:101EC00058EB0202414146EA9E0601D5BDE8018970
:101ED000B619524141EB0101A3F10103BDE80189AB
:101EE0004FEA14454FEA114724EA054621EA074C18
:101EF00005FB07F406FB07F70CFB06F105FB0CFCE2
:101F000011EB074144EB17444FEA124711EB0C4128
:101F100044EB1C4422EA074C05FB07F206FB07F7DB
:101F20000CFB06F605FB0CFC16EB074642EB1742D2
:101F300016EB0C4642EB1C456A1854F1000148BFF1
:101F40007047B619524141EB0101A3F101037047FB
:101F500095F0000F37D04FEA11424FEA144721EABB
:101F6000024624EA074C02FB07F106FB07F70CFBCD
:101F700006F402FB0CFC14EB074441EB17414FEA5B
:101F8000154714EB0C4441EB1C4125EA074C02FBBE
:101F900007F506FB07F70CFB06F602FB0CFC16EB3D
:101FA000074645EB174516EB0C4645EB1C4212194C
:101FB00051F1000148BF7047B619524141EB010190
:101FC000A3F1010370474FEA14454FEA114724EA91
:101FD000054621EA074C05FB07F106FB07F70CFB5A
:101FE00006F24FF0000605FB0CFC12EB074241EB3A
:101FF000174112EB0C4251EB1C4148BF704792183D
:1020000041EB0101A3F10103704700BFFEE7014668
:10201000CAB20B1243EA02207047000008B5002044
:10202000009022E19748008800F00F009649087060
:102030000846007800287CD19448006894490880BC
:102040000846008800F030009249088090480088D7
:1020500000F440508E4908808C4909684BF6BF72E5
:1020600001EA020080F4005080F0200040F40041BA
:1020700041F08001854A11608248008800F010001C
:1020800090BB1046006848F60F7108401146086082
:1020900000F082FE7D4909684BF6BF7201EA02003A
:1020A0007B49098801F4805109B180F48050784956
:1020B000098801F4005109B180F40050754909887C
:1020C00001F0100109B180F010007249098801F097
:1020D000200109B180F0200081B241F4004141F0BB
:1020E00080016A4A116008BDFFE76848006880B255
:1020F0000090BDF8000000F40060B0B363480068D1
:10210000C0F30E0048F68F7108406049086001F086
:102110009FFE5E4909684BF6BF7201EA02005C4906
:10212000098801F4805109B180F480505849098828
:1021300000E056E001F4005109B180F40050554927
:10214000098801F0100109B180F010005149098897
:1021500001F0200109B180F0200081B241F400417A
:1021600041F08001494A1160BDE7FFE7BDF800007A
:1021700000F40040002878D044480068C0F30E0006
:1021800048F68F7108404149086000F03FFF3F4921
:1021900009684BF6BF7201EA02003D49098801F463
:1021A000805109B180F480503949098801F4005107
:1021B00009B180F400503749098801F0100109B1D4
:1021C00080F010003349098801F0200109B180F046
:1021D000200081B241F4004141F080012B4A11609E
:1021E00081E7294800782C4901EB8000D0F8000CE9
:1021F00080B20090BDF8000000F40040C0B1224859
:10220000007801EB8000D0F8000CC0F30E0048F617
:102210008F7108401C4909781F4A02EB8101C1F8FF
:10222000000C19490978491E1C4A52F821008047C0
:10223000BDF8000000F08000B8B1134800781649DE
:1022400001EB8000D0F8000C48F60F7108400E49F1
:102250000978114A02EB8101C1F8000C0A4909789A
:10226000491E0F4A52F82100804708484430006850
:1022700080B20449088000F4004000287FF4D2AE08
:1022800000BF30E74C00002018000020005C004038
:102290002C0000202E000020005000406C00002088
:1022A000500000200B4A02EB8001D1F8001C01F421
:1022B000804171B102EB8001D1F8001C48F68F72A9
:1022C00011404CF280021143024B03EB8002C2F832
:1022D000001C7047005000400B4A02EB8001D1F80F
:1022E000001C01F0400171B102EB8001D1F8001C2B
:1022F00048F68F72114048F2C0021143024B03EBC3
:102300008002C2F8001C704700500040084A02EBEF
:102310008001D1F8001C48F68F62114048F280021B
:102320001143034B03EB8002C2F8001C704700000E
:102330000050004070B504460025062C18D11848FE
:102340000068007800F07F00012811D1144800686F
:10235000407968B9124800688078222801D1114D6F
:1023600010E00F480068807821280BD10E4D09E05D
:102370000B480068007800F07F00212802D1032C70
:1023800000D10A4D0DB9022070BD05480068856175
:1023900000210348006841820020A8470020F3E79D
:1023A0001C00002009240008D9230008ED230008A0
:1023B00010B504460249204601F092FE10BD00000F
:1023C000EC00002010B504460249204601F088FECA
:1023D00010BD0000E400002010B50446024920466C
:1023E00001F07EFE10BD0000FC000020014629B96E
:1023F0000120034A12681082002070470148FCE760
:102400001C0000208800002010B504460249204628
:1024100001F066FE10BD0000F400002070B5054616
:1024200006480068C478042C01DD002070BD044813
:1024300000EBC401284601F053FEF7E71C00002022
:10244000040100200246002901DD02207047002A15
:1024500001DD0220FAE70020F8E7000000B502469F
:1024600006480068007800F07F00212804D10B2A7C
:1024700002D100F07BF800BD0220FCE71C00002028
:1024800010B500202C49096888722B490968C87268
:102490002A48C079284909684872002001F0C0FA2A
:1024A0004FF40071002001F0B5FB1021002001F075
:1024B00077FB1821002001F0E3FA5821002001F0F9
:1024C00051FB0020FFF722FF1D4890F82C10002040
:1024D00001F0E8FA002001F02BFB4FF4C06101206D
:1024E00001F098FB9821012001F0CAFA4021012057
:1024F00001F0D8FA4FF44051012001F0F9FA4FF4FD
:10250000C061022001F086FB4FF48C71022001F0C3
:1025100029FB4021022001F035FB2021022001F09F
:102520003FFB012007490860002001F081FA0120EB
:102530000449086010BD00001C000020FC71000868
:1025400090000020240100200348817A11B1052168
:10255000024A11607047000074010020240100202D
:1025600004200149086070472401002003480068E6
:10257000C178034801600020704700001C00002063
:10258000880000207047704710B500F0E9FB00207C
:1025900005490968887200F0D3FF02F08DFA002027
:1025A0000249086010BD00001C000020240100202A
:1025B0002DE9F0472848006800F110052E882648CC
:1025C0000068077AD6B9042F18D12448007801286A
:1025D0000FD100212248006880B2801C214A42F8B5
:1025E000101030202049088000BF00201B490870CF
:1025F00003E0072710201C49088027E0AC88A6428A
:1026000001D8042000E002200746B44200D9344635
:10261000A0B2A96888478046002000F091FB81465F
:10262000A2B24946404602F06DFAA1B2002001F084
:10263000A9FA2888001B28806888204468803020F8
:102640000949088000020949088000BF0249096859
:102650000F72BDE8F08700001C000020160000206B
:10266000505C0040006000402E0000202C00002044
:102670002DE9F0412848006800F110042688A06880
:10268000C0B1BEB1A588B54200D93546A8B2A1688F
:10269000884707462088401B208060882844608047
:1026A000002000F03DFB8046AAB24146384600F0CB
:1026B0000DFF00BF208850B14FF4405017490880EB
:1026C0000021084601F05EFA302015490880208874
:1026D000A188884204DB03200F490968087218E0CA
:1026E0002088002804DD05200B490968087210E0E5
:1026F000208870B906200849096808720021094835
:10270000006880B2801C084A42F81010302004494A
:102710000880BDE8F08100001C0000202C00002093
:102720002E000020505C0040006000402DE9F84F72
:102730009B48006845780027BA46062D1BD198486B
:102740000068007800F07F00002813D194490968E0
:102750008878012803D193490968CF690AE00228E3
:1027600003D1904909680F6A04E0032802D18D491A
:1027700009684F6A94E0002D64D189480068408858
:1027800000285FD186480068C08802285AD1844852
:1027900000680079002855D181480068007800F071
:1027A0007F0028B97E480068808808B97E4F77E0AE
:1027B0007B480068007800F07F00012810D178493C
:1027C00009684879774909688A6900219047002893
:1027D00066D173480068807A002861D0724F5FE04C
:1027E0006F480068007800F07F00022858D16C48DC
:1027F0000068407900F00F0669480068407900F0F1
:10280000700967480068407900F0800038B1674976
:1028100001EB8600D0F8000C00F0300806E06349B8
:1028200001EB8600D0F8000C00F4405860480078B6
:10283000B04235D9B9F1000F32D1B8F1000F2FD025
:10284000594F2DE0082D07D155480068007800F059
:102850007F0028BB574F23E00A2D21D15048006844
:10286000007800F07F0001281AD14D480068807A76
:10287000B0B14B480068408890B949480068007979
:1028800070B947480068C088012809D144490968DF
:102890004879444909688A690021904700B9464F40
:1028A00057B13F480068A0F812A03D480068876112
:1028B0000020B84700240FE0394A12685078394A9E
:1028C0001268116988470446032C05D10920344950
:1028D00009680872BDE8F88F31480068008A4FF631
:1028E000FF71884204D109202D4909680872F1E777
:1028F000022C03D02A480068008A20B90820284901
:1029000009680872E6E726480068007800F0800051
:10291000E0B323480068C088009021480068008A1E
:102920000099884204D91E4900980968088223E06A
:102930001B480068008A1A490968C98888421BDA5E
:1029400017480068008A1749096891F82C108842D6
:1029500003DA0020194908700EE011480068008A67
:102960001049096891F82C1090FBF1F201FB12005C
:1029700010B90120114908700A48006890F82C101D
:10298000074800688182FFF713FE07E0FFE7032096
:1029900003490968087200030949088000BF99E7E4
:1029A0001C000020200000203141000800500040A1
:1029B0008C000020B54000080541000816000020EA
:1029C0002C000020704700BF0100A0F1010290B26E
:1029D000FAD17047002106E0002200E0521CB2F557
:1029E000487FFBD3491C8142F6D3704770470000F3
:1029F00010B540229821074800F068FD4FF440517F
:102A0000012001F075F8012003490870034908709E
:102A100010BD0000900100204B0000203301002079
:102A2000704770470549096821F01001034A116099
:102A30001146096801431160704700000020024000
:102A400001460020034A106800F038000843106077
:102A500070470000002002407047000008B50121C7
:102A6000042000F09DFD0121082000F099FD0121C6
:102A7000102000F095FD0121084600F091FD012194
:102A8000374800F001F90420ADF8000002208DF86D
:102A9000020010208DF803006946324800F068F803
:102AA0004FF40040ADF8000002208DF80200102025
:102AB0008DF8030069462C4800F05AF848F2FF7080
:102AC000ADF8000003208DF8020010208DF80300FF
:102AD0006946264800F04CF84FF4C040ADF80000BD
:102AE00003208DF8020010208DF8030069461D4870
:102AF00000F03EF84FF40040ADF8000028208DF8BB
:102B000003006946174800F033F80121084600F039
:102B1000BBF82820ADF8000003208DF80200182033
:102B20008DF8030069460F4800F022F81020ADF838
:102B3000000048208DF8030069460A4800F018F8A4
:102B400003208DF8020010208DF803004FF4407030
:102B5000ADF800006946034800F00AF808BD00001F
:102B600000023000000C014000100140000801404C
:102B70002DE9F04102460025002600200023002414
:102B8000002791F803C00CF00F0591F803C00CF07A
:102B9000100CBCF1000F03D091F802C04CEA0505FF
:102BA00091F800C0BCF1000F31D0146800202BE078
:102BB0004FF0010C0CFA00F3B1F800C00CEA030668
:102BC0009E4220D183004FF00F0C0CFA03F7BC4358
:102BD00005FA03FC4CEA040491F803C0BCF1280F89
:102BE00006D14FF0010C0CFA00FCC2F814C00AE048
:102BF00091F803C0BCF1480F05D14FF0010C0CFA5D
:102C000000FCC2F810C0401C0828D1D31460B1F8F1
:102C100000C0BCF1FF0F34DD546800202EE000F14D
:102C2000080C4FF0010808FA0CF3B1F800C00CEAE8
:102C300003069E4221D183004FF00F0C0CFA03F7DC
:102C4000BC4305FA03FC4CEA040491F803C0BCF150
:102C5000280F05D100F1080C08FA0CF8C2F814800E
:102C600091F803C0BCF1480F07D100F1080C4FF0F8
:102C7000010808FA0CF8C2F81080401C0828CED3CE
:102C80005460BDE8F0810000F0B50A46002300243E
:102C90000021002500F00046B6F1004F02D11D4E84
:102CA000F16901E01B4E7168C0F3034583B200F483
:102CB0004016B6F5401F08D121F07061154E7668B8
:102CC00026F07066134F7E6012E000F48016B6F5B1
:102CD000801F06D1032606FA05F4A14341F0706176
:102CE00006E0460D360103FA06F6B14341F0706185
:102CF00022B1460D360103FA06F6314300F00046D4
:102D0000B6F1004F02D1034EF16101E0014E716056
:102D1000F0BD000000000140416170470161704753
:102D200001460548006880B200EBC100001D034A5F
:102D300032F8100080B27047505C004000600040E4
:102D400001460548006880B200EBC100034A32F832
:102D5000100080B270470000505C004000600040EE
:102D600070B50A480468001D0568001D06683444F3
:102D700054B108220649204600F046F804220449CE
:102D80001031284600F040F870BD0000E8F7FF1F42
:102D90003300002000BFFEE710B518480068047A31
:102DA000022C01D0042C05D1FFF702FC1348006867
:102DB000047A1CE0062C19D11048006840780528D8
:102DC0000ED10E480068007800F07F0040B90B4932
:102DD0000968C87800F02CFE09490968086A80472C
:102DE0000849096888688047082400E008240349E6
:102DF00009680C7200F080FB10BD00001C00002070
:102E0000280000202000002030B50B46002100BF24
:102E100016E00A24B4EB107F05D9302404EB1074BB
:102E200003F8114005E0412404EB10740A3C03F858
:102E30001140000100254C00641C1D554C1CE1B2E2
:102E40009142E6DB30BD704700BFFEE77047704738
:102E500070B5002100230F22C47804B3154C2468F8
:102E600004F4E064C4F5E064210AC1F10403CA403B
:102E7000447804FA03F184781440214309010E4C8C
:102E80000678A155047804F01F050124AC400578AC
:102E90006D11AD0005F1E025C5F8004109E00478A9
:102EA00004F01F050124AC40044D0678761145F866
:102EB000264070BD0CED00E000E400E080E100E0A1
:102EC00002490143024A1160704700000000FA0500
:102ED0000CED00E070B5022647480068447846488B
:102EE0000068007800F07F00002844D1092C03D14D
:102EF00001F09EF906465FE0052C14D13E480068BB
:102F0000C0787F280BDC3C480068807838B93A48A4
:102F10000068808818B938480068807A08B10825A8
:102F200065E0002648E0032C0ED133480068C078E5
:102F3000012807D130480068808818B901F09CF951
:102F4000064639E0022637E0012C35D12A480068D0
:102F5000C07801280DD128480068808848B92648E3
:102F60000068407A00F0200018B100F0EDFF06463E
:102F700022E0022620E020480068007800F07F0070
:102F8000012805D10B2C17D101F0F2F9064613E008
:102F900019480068007800F07F0002280BD1012C4E
:102FA00003D100F0D1FF064606E0032C04D101F066
:102FB00077F9064600E002264EB1E0B20F4A1268E9
:102FC000516988470646032E01D109250FE00EB14D
:102FD00008250CE0062500210948006880B2801C05
:102FE000084A42F8101030200749088000BF024903
:102FF00009680D7270BD00001C0000202000002038
:10300000505C0040006000402E00002010B51148C8
:103010000068047A022C01D0042C01D1082412E0AB
:10302000032C01D0052C05D1FFF722FB09480068CD
:10303000047A08E0072C05D107490968C868804769
:10304000082400E00824034909680C7200F054FACF
:1030500010BD00001C000020200000202DE9F041E0
:10306000054600260027DFF8808200209F4908607F
:103070001420FFF7A8FC00209D49C1F8B8011420D6
:10308000FFF7A1FC0120994908601420FFF79BFC81
:1030900000209749C1F8B4011420FFF794FC0120E7
:1030A000924908601420FFF78EFC00209049C1F877
:1030B000B40100241FE000208C4908601420FFF7B1
:1030C00082FC08F08070B0F1807F04D10120874934
:1030D000091D086003E000208449091D08604FEACB
:1030E00048081420FFF76FFC012080490860282061
:1030F000FFF769FC641C192CDDD300241EE00020BE
:103100007A4908601420FFF75EFC05F080008028F3
:1031100004D101207549091D086003E000207349AE
:10312000091D08606806050E1420FFF74CFC0120FD
:103130006E4908602820FFF746FC641C082CDED38B
:10314000002413E00020694908601420FFF73BFCCD
:1031500000206749C1F8B8011420FFF734FC0120B2
:10316000624908602820FFF72EFC641C082CE9D374
:1031700000205E4908602820FFF725FC01205C49FB
:10318000C1F8B4011420FFF71EFC00205749086065
:103190001420FFF718FC01205549C1F8B401142090
:1031A000FFF711FC0020514908601420FFF70BFCC9
:1031B00001204F49C1F8B4011420FFF704FC00209E
:1031C0004A4908601420FFF7FEFB00241CE00120A0
:1031D000464908601420FFF7F6FB4548D0F83C014B
:1031E00020B1012000EB460086B203E04FF6FF70ED
:1031F00000EA46061420FFF7E6FB00203B49086082
:103200002820FFF7E0FB641C092CE0D340F2FF10FC
:10321000864203D04FF48070BDE8F08100241CE0AA
:103220000120324908601420FFF7CDFB3048D0F868
:103230003C0120B1012000EB470087B203E04FF6CC
:10324000FF7000EA47071420FFF7BDFB0020274965
:1032500008602820FFF7B7FB641C082CE0D301208E
:10326000224908601420FFF7AEFB00202049C1F876
:10327000B4011420FFF7A7FB01201C4908601420AB
:10328000FFF7A1FB00201A49C1F8B4011420FFF791
:103290009AFB0120154908601420FFF794FB0020D9
:1032A0001349C1F8B4011420FFF78DFB0120104928
:1032B000C1F8B4011420FFF786FB00200C49C1F8C7
:1032C000B4011420FFF77FFB01200949C1F8B401C4
:1032D0002820FFF778FB01200549C1F8B801282014
:1032E000FFF771FB384697E70280FF01B481214266
:1032F000008021422DE9F04105460E46704F002026
:10330000704908601420FFF75EFB00206E49C1F889
:10331000B8011420FFF757FB01206A490860142008
:10332000FFF751FB00206849C1F8B4011420FFF7F2
:103330004AFB0120634908601420FFF744FB00208A
:103340006149C1F8B40100241EE000205D49086015
:103350001420FFF738FB07F08070B0F1807F04D1B4
:1033600001205849091D086003E000205549091D46
:1033700008607F001420FFF726FB012051490860F8
:103380002820FFF720FB641C192CDED300241EE04C
:1033900000204C4908601420FFF715FB05F0800061
:1033A000802804D101204749091D086003E000205E
:1033B0004449091D08606806050E1420FFF703FB49
:1033C0000120404908602820FFF7FDFA641C082C02
:1033D000DED300241EE000203A4908601420FFF7E5
:1033E000F2FA06F08000802804D101203549091D39
:1033F000086003E000203349091D08607006060ECE
:103400001420FFF7E0FA01202E4908602820FFF77A
:10341000DAFA641C082CDED300202A490860142044
:10342000FFF7D1FA00202849C1F8B8012820FFF79A
:10343000CAFA0120234908601420FFF7C4FA0020CB
:103440002149C1F8B4011420FFF7BDFA01201D493C
:1034500008601420FFF7B7FA00201B49C1F8B40137
:103460001420FFF7B0FA01201749C1F8B401142065
:10347000FFF7A9FA00201449C1F8B4011420FFF79E
:10348000A2FA01201049C1F8B4011420FFF79BFAF9
:1034900000200D49C1F8B4011420FFF794FA01206F
:1034A0000949C1F8B4012820FFF78DFA0120064927
:1034B000C1F8B8012820FFF786FABDE8F0810000C6
:1034C0000200FF01B481214200802142F0B5561C68
:1034D0007510074E06EB41042B4605E034F8047BDB
:1034E00020F8017B401C5B1E002BF7D1F0BD0000D3
:1034F000006000407047000010B50D4890F82C1097
:10350000002000F0CFFA0B480068007A082805D1A7
:1035100040020949088010200849088005480068D1
:10352000007A092801D1012010BD0020FCE700002D
:10353000900000201C0000202C0000202E00002005
:1035400010B5012001F0E0F901240B4804600020CF
:103550000A49088008460088074908600020091DBC
:1035600008604FF4E0500549088008460088024989
:103570000860002010BD0000405C004026000020D4
:1035800029B1064AD2690243044BDA6104E0034AD6
:10359000D2698243014BDA6170470000001002409B
:1035A00029B1064A92690243044B9A6104E0034A36
:1035B00092698243014B9A617047000000100240FB
:1035C0000F48006840F001000D4908600846406857
:1035D0000C4908400A494860084600680A49084002
:1035E000074908600846006820F480200860084603
:1035F000406820F4FE0048604FF41F008860704768
:10360000001002400000FFF8FFFFF6FE30B5002179
:103610000022002400232D4D6D6805F00C0121B11E
:10362000042905D0082923D105E0294D056022E0B1
:10363000274D05601FE0254D6D6805F47012234D80
:103640006D6805F48034022505EB92421CB9214DCA
:10365000554305600BE01D4D6D6805F400351DB147
:103660001C4D5543056002E0194D5543056002E0CD
:10367000174D056000BF00BF144D6D6805F0F001E7
:103680000909154D6B5C0568DD4045600F4D6D689F
:1036900005F4E061090A104D6B5C4568DD4085600A
:1036A0000A4D6D6805F46051C90A0B4D6B5C4568A5
:1036B000DD40C560054D6D6805F44041890B074D3F
:1036C0006B5CC568B5FBF3F5056130BD00100240C9
:1036D00000127A0000093D000000002010000020C8
:1036E00010B501460022002300204A11012A02D110
:1036F000094C236806E0022A02D1074C236A01E044
:10370000054C636A01F01F02012494401C400CB177
:10371000012000E0002010BD001002400248406877
:1037200000F00C007047000000100240014600202D
:10373000034A506820F0F0000843506070470000D2
:10374000001002401149096821F480310F4A1160CC
:103750001146096821F480211160B0F5803F03D043
:10376000B0F5802F0ED106E00849096841F4803198
:10377000064A116007E00549096841F4A021034A9F
:10378000116000E000BF00BF704700000010024061
:1037900001460020034A506820F4E060084350606E
:1037A000704700000010024001460020034A5068A4
:1037B00020F4605040EAC1005060704700100240A1
:1037C000014908667047000000004242024600209E
:1037D000044B586820F47C1042EA01031843014B63
:1037E000586070470010024001460020034A5068AC
:1037F00020F00300084350607047000000100240B2
:103800000149086070470000D800424238B50020E6
:1038100000900024002500BF3120FFF761FF05461E
:103820000098401C00900098B0F5A06F01D0002DCA
:10383000F2D03120FFF754FF08B1012400E000244A
:10384000204638BD70B50546072D01D027480570C4
:1038500026480078082841D2DFE800F0040A101654
:10386000212E414200F046F80620204908703BE036
:1038700000F040F804201D49087035E002201B4983
:103880004870032008702FE018484078401E174900
:1038900048700846407808B90420087024E01448AD
:1038A000006884B244F010041148046005200F49F8
:1038B00008700A20487017E00C484078401E0B49F9
:1038C00048700846407840B90948006884B224F03E
:1038D0001004074804600620087005E000BF00BF20
:1038E00006200249087000BF00BF70BD29010020FA
:1038F000405C004010B50748006884B224F004041E
:1039000004480460FFF79FFA4FF43F400149086004
:1039100010BD0000405C004021B1028842F040022E
:10392000028004E002884FF6BF731A40028070479D
:1039300010B586B004461C48844204D1012100140D
:10394000FFF71EFE03E001210803FFF729FE2020F8
:10395000ADF810000120ADF80C000020ADF80A0011
:103960004FF40060ADF808000020ADF80400ADF899
:1039700012004FF48270ADF806000720ADF8140075
:103980004FF40070ADF80E0001A9204600F019F8C0
:103990004FF48071204600F032F801212046FFF7F5
:1039A000BBFF06B010BD00000038004002460020FA
:1039B00013890B400BB1012000E00020704781818A
:1039C000704710B50022028802F441520B884C88DF
:1039D00023438C882343CC8823430C8923434C897D
:1039E00023438C892343CC8923431A430280838B4E
:1039F0004FF2FF74234083830B8A038210BD4FF67E
:103A0000FF62914204D0028842F48072028004E096
:103A100002884FF6FF631A4002807047704700002B
:103A20004FF6F8710140014A11607047505C004048
:103A300030B501460F4B1A78002014E003060E4CF7
:103A400004EB9353D3F8003C48F68F74234048F2BC
:103A500080042343C4B223430406074D05EB94546A
:103A6000C4F8003C401C9042E8D341F08003034C72
:103A7000236030BD8C000020005000404C5C0040B2
:103A800010B54A105300054A126892B202EBC00208
:103A9000121D034C44F8123010BD0000505C004071
:103AA0000060004010B502460F48006880B200EB8D
:103AB000C200801D0D4C04EB40033E290BDD481174
:103AC00001F01F040CB9441EA0B24FF4004444EAB4
:103AD00080241C6007E0481001F001040CB1441C74
:103AE000A0B284021C6010BD505C00400060004029
:103AF00030B50E4C04EB8003D3F8003C4BF68F74CA
:103B000003EA040201F480530BB182F4805201F401
:103B100000530BB182F4005242F4004343F080039F
:103B2000024D05EB8004C4F8003C30BD005000405D
:103B300010B50B4B03EB8002D2F8002C4BF68F73C1
:103B400002EA030181F4805181F4005141F4004202
:103B500042F08002024C04EB8003C3F8002C10BD3D
:103B60000050004010B54A105200044B1B689BB235
:103B700003EBC003024C44F8132010BD505C00401E
:103B800000600040044A126892B202EBC002921C2C
:103B9000024B43F812107047505C00400060004038
:103BA00030B50E4C04EB8003D3F8003C48F6BF74EC
:103BB00003EA040201F010030BB182F0100201F0DD
:103BC00020030BB182F0200242F4004343F0800353
:103BD000024D05EB8004C4F8003C30BD00500040AD
:103BE00010B50B4B03EB8002D2F8002C48F6BF73E4
:103BF00002EA030181F0100181F0200141F400424A
:103C000042F08002024C04EB8003C3F8002C10BD8C
:103C10000050004010B5074B03EB8002D2F8002C97
:103C200048F68F131A400A43024C04EB8003C3F892
:103C3000002C10BD0050004010B500F001F810BD80
:103C40000CB50020019000903348006840F48030AB
:103C50003149086000BF3048006800F4003000902F
:103C60000198401C0190009818B90198B0F5A06F18
:103C7000F1D12948006800F4003010B10120009013
:103C800001E0002000900098012843D123480068FB
:103C900040F01000214908600846006820F0030049
:103CA00008600846006840F0020008601A48406852
:103CB000194948600846406848600846406840F432
:103CC000806048600846406820F47C1048600846E0
:103CD000406840F4E81048600846006840F0807092
:103CE000086000BF0C48006800F000700028F9D0A0
:103CF0000948406820F003000749486008464068CA
:103D000040F00200486000BF0348406800F00C002B
:103D10000828F9D10CBD000000100240002002402C
:103D200040F2FF71054A1160111F08600021044A2A
:103D300011600121034AC2F8A41170471408014020
:103D4000A48121420080214208B5FFF739FC4FF4DD
:103D50008030FFF7F7FCFFF759FD26490870084649
:103D60000078012827D11020FEF75CFE0220FEF724
:103D700067FE0020FFF7DAFC0020FFF715FD4FF487
:103D80008060FFF705FD4FF4E0114FF48030FFF73E
:103D90001DFD0120FFF714FD00BF3920FFF7A0FC37
:103DA0000028FAD00220FFF71FFD00BFFFF7B6FC86
:103DB0000828FBD101E000BFFEE701210807FFF75B
:103DC000DFFBFEF749FE01210420FFF7E9FB4FF47A
:103DD0008050ADF8000003208DF8020010208DF80F
:103DE000030069460448FEF7C3FE01210820FFF7DF
:103DF000D7FB08BD300000200008014010B50020AE
:103E0000FFF7FEFC0121C805FFF7BAFB10BD00005B
:103E100010B5044600200C4908604FF6FF7000EA18
:103E2000840421460948FFF7CAFD00BF0221074864
:103E3000FFF7BCFD0028F9D06420FEF7C4FD012087
:103E40000149086010BD0000A081214200300140FE
:103E500038B501242948006880B2001D284931F88E
:103E6000100080B201EB4000009026480068007A04
:103E7000092832D000980078224909680870009813
:103E8000401C0090009800781E490968487000980E
:103E9000401C0090009800EB44000090009931F81D
:103EA000020B0091FEF7B3F81649096848800098A4
:103EB00000EB44000090009931F8020B0091FEF7EE
:103EC000A6F8104909688880009800EB440000902B
:103ED000009800880B490968C880012009490968D1
:103EE000087208480068C08810B9FEF7F3FF01E0C7
:103EF000FEF71CFCFFF700FB38BD0000505C0040E3
:103F0000006000401C0000202DE9F0410746884673
:103F10001446002641463846FCF798FA05463146D5
:103F2000761C44F8215009E041460020FCF78EFA47
:103F300005463046711CCEB244F82050002DF3D116
:103F4000701EC0B2BDE8F0812DE9F047544800680A
:103F5000007800F07F08B8F1000F0AD150480068DF
:103F6000407A00F0DF004E49096848720020BDE841
:103F7000F087B8F1020F7CD149480068408818B931
:103F800047480068007908B10220F0E7DFF8149193
:103F900043480068477927F080052C464048006870
:103FA000407900F0800038B13F4901EB8400D0F83F
:103FB000000C00F0300606E03B4901EB8400D0F82D
:103FC000000C00F4405699F80000A84204D91EB134
:103FD00033480068807A08B90220C8E707F08000FB
:103FE00080B1314901EB8400D0F8000C00F03000C2
:103FF00010284BD1E0B2FEF76FF9E0B23021FFF7A5
:10400000CFFD43E0284901EB8400D0F8000C00F418
:104010004050B0F5805F39D1E4B9244A92F82C10B1
:10402000E0B2FFF73FFD204A02EB8401D1F8001C0B
:104030004BF68F7201EA020080F4805080F4005049
:1040400040F4004141F08001174B03EB8402C2F8B9
:10405000001C1BE0E0B2FEF725F9134A02EB8401D5
:10406000D1F8001C4BF68F7201EA020080F48050F8
:1040700000E011E080F4005040F4004141F0800184
:10408000094B03EB8402C2F8001C00BF0849096811
:104090004869804700206AE700BF022067E7000008
:1040A0001C0000208C0000200050004090000020E8
:1040B0002800002010B504462CB9012006490968E3
:1040C0000882002010BD0549096808688047024839
:1040D00000680A30F6E700001C00002028000020DD
:1040E00010B5024606480068438A32B98888C01A6B
:1040F000034C24682082002010BD08681844FBE7A8
:104100001C00002010B504462CB90120064909689E
:104110000882002010BD0549096888688047024868
:1041200000680C30F6E700001C000020280000208A
:1041300010B504462CB902203949096808820020CC
:1041400010BD00203749088035480068007800F02D
:104150007F0018BB32490968487A00F0200131B16C
:104160003049097841F002012E4A117005E02D49CD
:10417000097801F0FD012B4A117000F0400131B1C6
:104180002849097841F00101264A117005E02549C6
:10419000097801F0FE01234A11703AE020480068D6
:1041A000007800F07F00012801D11E48C8E71C48B4
:1041B0000068007800F07F00022828D1184A1268B1
:1041C000517901F00F0001F080027AB1164B03EB38
:1041D0008002D2F8002C02F03002102A16D1114AC7
:1041E000127842F001020F4B1A700FE00E4B03EBF6
:1041F0008002D2F8002C02F44052B2F5805F05D163
:10420000084A127842F00102064B1A7001E00020C1
:1042100096E70649096808698047024890E7000068
:104220001C00002014000020005000402800002046
:1042300010B50E480068C0780D494978884213DCF3
:104240000A480068807878B908480068808858B9BA
:1042500006480068C07805490968887205490968F8
:1042600048688047002010BD0220FCE71C000020A9
:104270008C0000202800002010B507480068407A14
:1042800040F0200004490968487204490968C86977
:104290008047002010BD00001C00002028000020E6
:1042A0002DE9F0412E480068467926F080073C460B
:1042B0002B480068407900F0800038B1294901EBB3
:1042C0008400D0F8000C00F0300506E0254901EB31
:1042D0008400D0F8000C00F4405523480078A04238
:1042E00008D91F480068408820B91DB11C480068E3
:1042F000807A10B90220BDE8F08106F08000A0B1FC
:10430000184A02EB8401D1F8001C48F6BF7201EA9A
:10431000020080F0100040F4004141F08001114B98
:1043200003EB8402C2F8001C14E00E4A02EB840185
:10433000D1F8001C4BF68F7201EA020080F4805025
:1043400040F4004141F08001064B03EB8402C2F8C7
:10435000001C00BF05490968886980470020CAE73A
:104360001C000020005000408C000020280000208D
:1043700010B5174B1B68D978154B1B685879154B2E
:104380001B689A699047044611480068807AE8B132
:104390003CB90F480068007918B90D48006880786A
:1043A00008B1022010BD8CB90B490968C868804764
:1043B00007480068407906490968C87204480068DF
:1043C000C0780349096808730020EBE70220E9E799
:1043D0001C000020200000202800002010B5084804
:1043E000006884B244F0080405480460006884B2A0
:1043F00044F0040402480460FEF713FB10BD000003
:10440000405C00407047000010B51348006840F061
:1044100001001149086008464068104908400E49EB
:104420004860084600680E4908400B490860084685
:10443000006820F4802008600846406820F4FE00F0
:1044400048604FF41F008860FFF7F6FB4FF00060F4
:104450000449086010BD0000001002400000FFF891
:10446000FFFFF6FE08ED00E04FF6FE7002490880FF
:1044700001200249087070471004004032010020FA
:10448000CA430282704721B1028842F001020280D1
:1044900004E002884FF6FE731A4002807047000065
:1044A0001FB501210220FFF76BF80020ADF80600D0
:1044B000ADF80200D820ADF804000020ADF80000EF
:1044C00069460F4800F060F800208DF80D008DF867
:1044D0000E0001208DF80F001D208DF80C0003A8A0
:1044E000FEF7B6FC01210648FFF7CAFF012211467C
:1044F000034800F007F80021014800F00CF81FBD48
:10450000000400401AB183890B43838102E0838950
:104510008B43838170478184704700002DE9FE43FF
:1045200004460020ADF80600ADF80200134920460D
:1045300002F0DEFC814602F045FB07460022104BEC
:1045400001F002FE054602F07FF880B2ADF80400EB
:104550000020ADF8000069460A4800F015F8012176
:104560000848FFF78DFF012211460648FFF7CAFFF2
:1045700000210448FFF7CFFFBDE8FE830000904212
:104580000000E03F00040040002202881D4B9842DA
:104590000ED01D4B98420BD0B0F1804F08D01B4B72
:1045A000984205D01A4B984202D01A4B984204D137
:1045B0004FF68F731A404B881A43174B984207D017
:1045C000164B984204D04FF6FF431A40CB881A434B
:1045D00002808B8883850B8803850A4B98420BD019
:1045E000094B984208D00E4B984205D00D4B98428B
:1045F00002D00D4B984201D10B7A038601238382AE
:1046000070470000002C01400034014000040040CD
:1046100000080040000C0040001000400014004062
:1046200000400140004401400048014010B540F204
:1046300025511D4800F0A0F810B31B4800F05FF9A9
:10464000C4B21A48008800F40040C8B9174800886E
:1046500000F4804060B10A2C03D000201349088088
:1046600020E01248008840F400401049088019E01A
:104670000D2C06D10D48008840F480400B4908807D
:1046800010E00A480088C0F30D0009490C5407489F
:104690000088401C0549088008460088C72801DDBD
:1046A0000020088010BD0000003801406801002093
:1046B0001002002021B1828942F40052828104E07C
:1046C00082894DF6FF731A408281704700B585B02C
:1046D00000F032F800F00CF925208DF800000320DE
:1046E0008DF801008DF8020001208DF80300684666
:1046F000FEF7AEFB4FF4E13001900020ADF80A0068
:10470000ADF80800ADF80C00ADF810000C20ADF8C5
:104710000E0001A9074800F07FF8012240F2255160
:10472000044800F053F801210248FFF7C3FF05B029
:1047300000BD00000038014008B501210420FEF74B
:10474000A3FA18208DF803004020ADF800000320E4
:104750008DF8020069460748FEF70AFA04208DF832
:1047600003008020ADF8000069460248FEF700FA19
:1047700008BD0000000C014070B502460024002373
:104780000025002040F66A16B14200D100BFC1F3F7
:10479000421501F01F03012606FA03F3012D02D191
:1047A0009689334006E0022D02D1168A334001E09B
:1047B000968A33400C12012606FA04F41688344017
:1047C00013B10CB1012000E0002070BDF0B503462C
:1047D000002400260025002040F66A17B94200D1C7
:1047E00000BF1846C1F3421401F01F06012707FA63
:1047F00006F5012C01D10C3004E0022C01D110305F
:1048000000E014301AB107682F43076002E0076820
:10481000AF430760F0BD00002DE9F04786B00546C4
:104820000E460024A24600BFA1460027B08900B171
:1048300000BF2F462C8A4CF6FF700440F0880443DA
:104840002C82AC894EF6F3100440B08831890843BD
:10485000718908430443AC81AC8A4FF6FF400440A1
:10486000B0890443AC8201A8FEF7D0FE1F488742FE
:1048700002D1DDF810A001E0DDF80CA0A88900F459
:10488000004040B10AEBCA0000EB0A103168490051
:10489000B0FBF1F807E00AEBCA0000EB0A10316840
:1048A0008900B0FBF1F86420B8FBF0F004012009A6
:1048B000642101FB1089A88900F4004040B1322036
:1048C00000EBC900B0FBF1F000F00700044308E082
:1048D000322000EB09106421B0FBF1F000F00F0072
:1048E00004432C8106B0BDE8F08700000038014089
:1048F00010B5012144F20400FEF752FE10BD01463E
:104900008888C0F30800704710B504462CB14FF4F6
:1049100080510548FEF700FA04E04FF48051024848
:10492000FEF7FCF910BD000000080140024600231C
:10493000402900D94021002304E00448C05C1070E5
:10494000521C5B1C8B42F8D3084670479001002034
:1049500010B508480849086002200968087207482D
:104960000749086007480849086005490968086858
:10497000804710BD740100201C0000209000002022
:1049800020000020C00000202800002008B54FF4BF
:104990004070FEF795FA14208DF8000001208DF884
:1049A000010000208DF8020001208DF80300684608
:1049B000FEF74EFA08BD000010B5374800683749C9
:1049C00008800846008800F40040354909880840FE
:1049D00008B1FDF723FB3148008800F480603049BE
:1049E0000988084030B14FF6FF302B4908602D4947
:1049F000486880472948008800F400502849098801
:104A0000084018B14DF6FF7023490860234800881C
:104A100000F4805022490988084030B14EF6FF70FA
:104A20001D4908600020FEF70DFF1C48008800F4B7
:104A300000601B490988084060B11B48007810B12C
:104A4000FFF7CCFC02E00220FEF7FCFE4FF2FF7005
:104A5000114908601148008800F400701049098865
:104A6000084040B14FF6FF500B4908600F480078EE
:104A7000401C0E4908700948008800F480700849FD
:104A80000988084030B14FF6FF60034908600720ED
:104A9000FEF7D8FE10BD0000445C00404C00002032
:104AA0002600002090000020280100204E00002059
:104AB00010B5FFF781FF10BD0020064908604FF4D4
:104AC0003F4005490880084600880249091F0860E0
:104AD00000207047445C00402600002070B5054669
:104AE0000C46A2B24FF48C71284600F00BF840211E
:104AF0000220FFF747F80220FFF772F8204670BD4A
:104B000000BFFEE7F0B5144604F1010C4FEA6C0754
:104B1000DFF824C00CEB41033D460AE00678401C58
:104B200090F800C046EA0C2223F8022B9B1C401C84
:104B30006D1E002DF2D1F0BD00600040490050EA2A
:104B4000C12018BF04204A0D18BF40F0010040F2F8
:104B5000FF72B2EB515F08BF40F00200012808BFAE
:104B600005207047024A0020110702F0F2BA000047
:104B700001FDFFFF10B50446D1E9000100F002F885
:104B8000206010BD38B504460D466A4600F062F854
:104B900000987E30009000281FDC0022134620463B
:104BA000294601F0E5FC18D02046294601F09AFA82
:104BB0000446002140F608004FF0000040F60801CE
:104BC000014040F608004FF0000034F0004004BF00
:104BD0000220FCF7CCFB204638BD0098FF280DDBF7
:104BE0000220FCF7C4FB002213462046294601F0B0
:104BF000BDFE8CBF04484FF0FF4038BD204629461B
:104C0000BDE8384001F06EBA000080FF10B50446E0
:104C10000A46D4E90003194600F048F8C4E9000147
:104C200010BD30380A2801D201207047002070479B
:104C3000014600BF7047000000BF054A128802F01D
:104C40004002002AF9D0C2B2014B1B1D1A807047E6
:104C50000038014010B5144600222260114A21F0AC
:104C600000439342A8BF10BD53EA000208BF10BD25
:104C7000B3F5801FA8BF226807DA362202F069FA6E
:104C80006FF0350221F000432260DFF81CC06FF3A3
:104C90001E510CEB23531A4441F0FF5141F00051D7
:104CA000226010BD0000F07F02FCFFFF2DE9F04103
:104CB00006460C4640F2FF75174635EA145030D0D0
:104CC00000221346304601F053FC2AD03A463046C3
:104CD000214602F03EFA06460C4635EA145010D042
:104CE00000221346304601F043FC1AD10220FCF7A3
:104CF0003EFBFFF737FF0A46214662F31E01BDE87F
:104D0000F0810220FCF733FB40F2013200204FF02B
:104D1000E04102F01EFA0A46214662F31E01BDE898
:104D2000F08130462146BDE8F0810000ECB0002063
:104D30004A904990489000BF349024902590FF20DD
:104D40001290FFF701F8FDF789FE0020D2490860B4
:104D5000D249C1F8BC01FFF7B9FCD1A0FBF772FA48
:104D6000DCA0FBF76FFAE8A0FBF76CFAF3A0FBF707
:104D700069FACBA0FBF766FAFDA0FBF763FAFD48E2
:104D8000FEF7D6FDFFF78CFBFFF700FEFFF736F8C6
:104D9000FFF7DEFD0120C0491C310860F649C1F86B
:104DA000A00100204A900AE00021F44A4A981154D8
:104DB0005221F34A4A9811544A98401C4A904A9802
:104DC0004028F1D30120B4492C310860EA49C1F8E8
:104DD000B801B1494C3908604FF46B70FFF718F80F
:104DE0000020E849C1F8BC0140F2FA70FEF798FFD4
:104DF000E5A0FBF727FA01F0A5B8EB4800780028FA
:104E0000F9D00020E849087080214CA8FFF78EFDFA
:104E100014AAE6A14CA8FFF777F814980A220021FB
:104E20001190FBF7DBFAC0B24B90DDE92023DDE9FE
:104E30002210CDE90923CDE90B10DDE91C23DDE9C2
:104E40001E01CDE90523CDE90701DDE919321899E5
:104E50001B98CDE9023201910490179800901698A2
:104E600011901598109014980F900146D048DDE9E4
:104E70001023FBF7E7F9CF48FFF750FB4B980128C9
:104E80007ED1CDA0FBF7DEF915980A220021119002
:104E9000FBF7A4FA1390DDE9121088423BD0139877
:104EA0001290CA49139801EBC00103C9C84AC94B03
:104EB000CDE9000101F05CFC0022C74BCDE9020105
:104EC00001F042F9C54AC64BCDE9040101F090FD5D
:104ED000C44AC54BCDE9060101F04AFCBF4AC04BAC
:104EE000CDE9080101F078FD0022BB4BCDE90A01B4
:104EF00001F0E6F90022BD4BCDE90C0101F038FCD0
:104F0000CDE90E0101F0A0FB80B21190FEF780FF09
:104F10006420FDF75FFD169800210D9001F0A8F8C0
:104F20000022B34BCDE90E0101F00EF9CDE91001DD
:104F300001F0D8F82C902C9801F044FE02460B4664
:104F4000CDE91001ABA0FBF77DF92C9801F03AFEFA
:104F5000AD4AAE4BCDE90C0101F0B2F90022AC4BE9
:104F6000CDE90E0101F004FCCDE9100101F03CFB9C
:104F700037900120A7490860379880B2119000E06F
:104F80000FE0FEF7CDFE4FF4C870FDF723FD0120C2
:104F90007949C1F88801A0490860A0A0FBF752F93F
:104FA00029E74B98022876D1A4A0FBF74BF9002003
:104FB0004A90349015980A2200210C90FBF70EFAC3
:104FC0000D9001F06EFBA34AA34BCDE90E0101F059
:104FD000CFFBCDE9100101F037FB45900321459847
:104FE000B0FBF1F04290429801F03AFF11903798EF
:104FF00001F01EFF1090119901F01CFE2B909749B3
:105000002B9801F075FF119001F0D6FE369015989F
:105010000A2200211090FBF7E1F90146119090A0BF
:10502000FBF710F94FF47A70FDF7D4FC0020934998
:10503000087001219248FFF726FA0120754908609F
:1050400017E08E480078A0B100208C4908704A987B
:10505000401C4A90369948434FF47A71B0FBF1F006
:105060003490349880B21190FEF75AFE4298401E58
:10507000429042980028E4D100218148FFF703FACA
:105080004FF4C870FDF7A6FC0120034908600349EE
:10509000C1F8BC01F6E0F9E088812142000022421B
:1050A0000D0A2A2A2A2A2A2A2A2A2A2A2A2A2A2A9D
:1050B0002A2A2A2A2A2A2A2A2A2A2A2A2A2A2A2A50
:1050C0002A2A2A2A2A2A2A2A2A2A2A2A2A2A2A2A40
:1050D0002A2A2A000D0A2A2A2A2A2A2A2A2A204F7C
:1050E0007363696C6C6F73636F706520436F6E746C
:1050F000726F6C20426F6172642076322E31202AEA
:105100002A2A2A2A2A2A2A000D0A2A2A2A2A2A2A66
:105110002A2A2A2A2A2A2A2A2A20427920496E6EF5
:105120006F6C7578204E4742205044202A2A2A2A44
:105130002A2A2A2A2A2A2A2A2A2A2A000D0A2A2A36
:105140002A2A2A2A2A2A2A2A2A2A2A2A20416C6C2E
:10515000205269676874732052657365727665645E
:10516000202A2A2A2A2A2A2A2A2A2A2A2A2A2A00D3
:105170000D0A000000300140008021429001002013
:10518000D0010020000021420A0D3D3D3E20537910
:105190007374656D20737461727420776F726B69BC
:1051A0006E672E2E2E0D0A004B0000203B000000E3
:1051B00034730008000040400A0D454E544552200B
:1051C0004D45414E204D4F44450D0A0048010020F9
:1051D0009A9999999999F13F00000840F0A7C64B18
:1051E0003789F33F053411363CBDB23F0000B04073
:1051F0000000E03F09546172676574566F6C203D92
:1052000020256C660D0A00001E85EB51B81E2E404D
:105210000000A040BC012142BC0122420A0D3D3DDC
:105220003E20536574205643432056616C756520BB
:1052300066696E6973682E2E2E0D0A000A0D454EA2
:1052400054455220494E52555348204D4F44450D28
:105250000A000000CDCCCCCCCCCCF43F00007A448A
:10526000095461726765745269736554696D65208C
:105270003D20256C752075730D0A00003201002059
:1052800000040040F9A0FAF7DDFFB4E54B980728C9
:105290007DD1FEA0FAF7D6FF00204A9034901698F0
:1052A0000021119000F0E4FECDE92601DDE9242380
:1052B000DDE9260101F09CFB21F00041F84AF94BA1
:1052C000CDE9100101F052FB4BD2DDE92601CDE919
:1052D0002401F54AF54BDDE9260101F049FA0022E7
:1052E000F34BCDE9020100F02FFFF24AF24BCDE97A
:1052F000040101F07DFBF14AF14BCDE9060101F01B
:1053000037FAEC4AEC4BCDE9080101F065FB0022CD
:10531000E74BCDE90A0100F0D3FF0022E94BCDE9CC
:105320000C0101F025FACDE90E0101F08DF980B2F2
:105330001190FEF76DFDDC4ADC4BDDE9260101F042
:1053400017FA0022DA4BCDE90E0100F0FDFE02460D
:105350000B46CDE91001DCA0FAF774FF6420FDF7DD
:1053600039FB0022DE4BDDE9260100F0EDFECDE940
:10537000100100F0B7FE2C90DAA0DDE92623FAF741
:1053800061FF2C9801F01EFCDC4ADD4B00E0A0E040
:10539000CDE90C0100F094FF0022DA4BCDE90E01BB
:1053A00001F0E6F9CDE9100101F01EF937901598EA
:1053B0000A2200210C90FBF711F80D9001F071F911
:1053C000D14AD24BCDE90E0101F0D2F9CDE910015D
:1053D00001F03AF9409003214098B0FBF1F042907F
:1053E000429801F03DFD1190379801F021FD109099
:1053F000119901F01FFC2B90C5492B9801F078FD05
:10540000119001F0D9FC3690379801F011FD119000
:10541000429801F025FD1090119901F00BFC2990A4
:105420004FF07E51299801F02FFE0BD23798429011
:105430004FF47A703690B748299901F059FD1190D0
:10544000FFF76CF815980A2200211090FAF7C6FFB2
:1054500001461190B0A0FAF7F5FE4FF47A70FDF70F
:10546000B9FA0020B24908700121B248FFF70BF8E1
:105470000120B149086017E0AD480078A0B10020D4
:10548000AB4908704A98401C4A90369948434FF4FB
:105490007A71B0FBF1F03490349880B21190FEF73D
:1054A0003FFC4298401E429042980028E4D10021DF
:1054B000A048FEF7E8FF4FF4C870FDF78BFA012013
:1054C0009E4908609E49C1F8BC0168A0FAF7BAFE7F
:1054D00091E44B98082878D19AA0FAF7B3FE0020FF
:1054E0004A9015980A2200210C90FAF777FF0D9048
:1054F00001F0D7F8844A854BCDE90E0101F038F967
:10550000CDE9100101F0A0F83F9003213F98B0FBD6
:10551000F1F04190419801F0DBF8CDE90E013798A8
:1055200001F0BFF8CDE90C01DDE90E2300F0C8FE63
:10553000CDE9100100F0D6FD2A9075492A9801F0B6
:10554000D7FC119001F038FC3590379801F070FCD1
:105550001190419801F084FC1090119901F06AFBC0
:1055600028904FF07E51289801F08EFD0BD237988D
:1055700041904FF47A7035906648289901F0B8FC54
:105580001190FEF7CBFF15980A2200211090FAF730
:1055900025FF1190014670A0359B419AFAF752FE03
:1055A0000020794908607949C1F888014FF4C87032
:1055B000FDF710FA00205E49087001215D48FEF7F2
:1055C00062FF01205C49086020E02AE0584800782A
:1055D000E0B1002056490870379800EB4001C1EB5C
:1055E000C0113598C0EBC1004FF47A7190FBF1F017
:1055F00037903798002801DA00203790379880B22A
:105600001190FEF78DFB4198401E41904198002873
:10561000DCD100214748FEF736FF5DA0FAF712FE05
:10562000BEE44B9809281ED100206149087061A092
:10563000FAF708FE1D980021119000F019FDCDE940
:105640002601DDE92423DDE9260101F0D1F921F06D
:105650000041134A134BCDE9100101F087F903D241
:10566000DDE92601B2E0AEE3FBE000000A0D3D3DBE
:105670003E2056434320726973696E672066696EE7
:105680006973682E2E2E0D0A000000000A0D454E8B
:105690005445522052495345204D4F44450D0A0070
:1056A0007B14AE47E17A743F9A9999999999F13FA1
:1056B00000000840F0A7C64B3789F33F0534113688
:1056C0003CBDB23F0000B04009536574204F5020EC
:1056D000566F6C74616765203D20256C660D0A006D
:1056E0000000D03F0954617267657420566F6C7476
:1056F000616765203D20256C660D0A001E85EB5113
:10570000B81E2E400000A040CDCCCCCCCCCCF43F79
:1057100000007A44000040400952697365205469D2
:105720006D65203D20256C752075730D0A00000005
:105730003201002000040040BC0121428881214246
:10574000000022420A0D454E5445522046414C4C21
:10575000204D4F44450D0A000946616C6C20546988
:105760006D65203D20256C752075730D0A095374F5
:105770006570203D2025640D0A09476170203D2099
:1057800025750D0A00000000BC0122420080214264
:105790000A0D3D3D3E205643432066616C6C696EA8
:1057A000672066696E6973682E2E2E0D0A00000050
:1057B000330100200A0D454E544552204F4E2F4FC5
:1057C0004646204D4F44450D0A000000CDE9240116
:1057D000FD4AFE4BDDE9260100F0CAFF0022FC4B2A
:1057E000CDE9020100F0B0FCFA4AFB4BCDE904011F
:1057F00001F0FEF8F94AFA4BCDE9060100F0B8FFD6
:10580000F44AF54BCDE9080101F0E6F80022F04B2F
:10581000CDE90A0100F054FD0022F24BCDE90C0164
:1058200000F0A6FFCDE90E0100F00EFF80B211904E
:10583000FEF7EEFAE44AE54BDDE9260100F098FFB9
:105840000022E34BCDE90E0100F07EFC02460B4640
:10585000CDE91001AFF29010FAF7F4FC6420FDF7E7
:10586000B9F80022E04BDDE9260100F06DFCCDE93E
:10587000100100F037FC2C90AFF29810DDE92623E0
:10588000FAF7E0FC0120D9490860D949C1F8BC0108
:105890004FF47A70FDF79EF80020D64908702C98D6
:1058A00001F090F9D44AD54BCDE90C0100F008FD88
:1058B0000022D34BCDE90E0100F05AFFCDE91001D3
:1058C00000F092FE379015980A2200210C90FAF70A
:1058D00085FD0D9000F0E5FECA4ACB4BCDE90E01E7
:1058E00000F046FFCDE9100100F0AEFE409003212C
:1058F0004098B0FBF1F04290429801F0B1FA11905B
:10590000379801F095FA1090119901F093F92B90C6
:10591000BE492B9801F0ECFA119001F04DFA369047
:105920004298479016980A2200210C90FAF756FDEB
:105930000D9000F0B6FEB34AB34BCDE90E0100F076
:1059400017FFCDE9100100F07FFE3F9003213F9843
:10595000B0FBF1F04190419800F0BAFECDE90E01A4
:10596000379800F09EFECDE90C01DDE90E2300F032
:10597000A7FCCDE9100100F0B5FB2A90A3492A98B5
:1059800001F0B6FA119001F017FA3590419846905F
:1059900017980A2200211190FAF720FD4FF47A712E
:1059A00048433E9003213E98B0FBF1F04490189894
:1059B0000A2200211190FAF711FD4FF47A71484341
:1059C0003D9003213D98B0FBF1F0439019980A22D5
:1059D00000211190FAF702FD4FF47A714843032138
:1059E00090FBF1F032901A980A2200211190FAF7F8
:1059F000F5FC4FF47A714843032190FBF1F03190AC
:105A00003298309031982F901B980A2200211190E3
:105A1000FAF7E4FC4FF47A714843032190FBF1F06C
:105A20003C901C980A2200211190FAF7D7FC4FF401
:105A30007A714843032190FBF1F03B9003203A90A8
:105A4000379801F0F5F91190429801F009FA109099
:105A5000119901F0EFF829904FF07E51299801F04B
:105A600013FB4DD2379842904FF47A703690449899
:105A700001F0F6F91090299901F0DCF8119001F08D
:105A8000B7F94490329801F0D3F91090299901F0B8
:105A9000D1F8119001F090F93290319801F0C8F9E5
:105AA0001090299901F0C6F8119001F085F9319014
:105AB0003C9801F0D5F91090299901F0BBF81190AC
:105AC00001F096F93C903B9801F0CAF910902999A1
:105AD00001F0B0F8119001F08BF93B904C482999F6
